:100000000C9462000C948A000C948A000C948A0070
:100010000C948A000C948A000C948A000C948A0038
:100020000C948A000C948A000C948A000C94EB03C4
:100030000C948A000C948A000C948A000C948A0018
:100040000C94A1030C948A000C946F030C94490344
:100050000C948A000C948A000C948A000C948A00F8
:100060000C948A000C948A000000000024002700F1
:100070002A0000000000250028002B0000000000DE
:1000800023002600290004040404040404040202DA
:100090000202020203030303030301020408102007
:1000A0004080010204081020010204081020000012
:1000B0000008000201000003040700000000000027
:1000C0000000710711241FBECFEFD8E0DEBFCDBF07
:1000D00011E0A0E0B1E0E8E2F8E102C005900D9285
:1000E000AE3EB107D9F722E0AEEEB1E001C01D92FD
:1000F000A13BB207E1F710E0C2E6D0E004C02197CF
:10010000FE010E942F09C136D107C9F70E945D0484
:100110000C94120C0C940000CF92DF92EF92FF929D
:100120000F931F93CF93DF936C017A018B01C0E093
:10013000D0E0CE15DF0589F0D8016D918D01D60193
:10014000ED91FC910190F081E02DC6010995892B7C
:1001500011F47E0102C02196ECCFC701DF91CF914F
:100160001F910F91FF90EF90DF90CF900895089529
:1001700080E090E00895FC01538D448D252F30E000
:10018000842F90E0821B930B541710F0CF960895A4
:1001900001970895FC01918D828D981761F0828DF1
:1001A000DF01A80FB11D5D968C91928D9F5F9F73AB
:1001B000928F90E008958FEF9FEF0895FC01918D4D
:1001C000828D981731F0828DE80FF11D858D90E0BA
:1001D00008958FEF9FEF0895FC01918D228D892F57
:1001E00090E0805C9F4F821B91098F73992708953F
:1001F00084E192E00E94EC0021E0892B09F420E0E8
:10020000822F0895FC01848DDF01A80FB11DA35A30
:10021000BF4F2C91848D90E001968F739927848F26
:10022000A689B7892C93A089B1898C9180648C931D
:10023000938D848D981306C00288F389E02D808108
:100240008F7D80830895EF92FF920F931F93CF933A
:10025000DF93EC0181E0888F9B8D8C8D981305C016
:10026000E889F989808185FD24C0F62E0B8D10E088
:100270000F5F1F4F0F731127E02E8C8DE8120CC0FB
:100280000FB607FCFACFE889F989808185FFF5CFA1
:10029000CE010E940201F1CF8B8DFE01E80FF11D0E
:1002A000E35AFF4FF0820B8FEA89FB8980818062DD
:1002B00007C0EE89FF896083E889F98980818064BD
:1002C000808381E090E0DF91CF911F910F91FF90AB
:1002D000EF900895CF93DF93EC01888D8823C9F0C8
:1002E000EA89FB89808185FD05C0A889B9898C913F
:1002F00086FD0FC00FB607FCF5CF808185FFF2CFDA
:10030000A889B9898C9185FFEDCFCE010E940201A9
:10031000E7CFDF91CF91089580E090E0892B29F01D
:100320000E94F80081110C9400000895833081F040
:1003300028F4813099F08230A1F008958730A9F037
:100340008830B9F08430D1F4809180008F7D03C073
:10035000809180008F7780938000089584B58F7797
:1003600002C084B58F7D84BD08958091B0008F77E1
:1003700003C08091B0008F7D8093B0000895CF932B
:10038000DF93282F30E0F901E255FF4F8491F90106
:10039000E656FF4FD491F901EA57FF4FC491CC23A1
:1003A00091F081110E949601EC2FF0E0EE0FFF1FFB
:1003B000E458FF4FA591B491EC91ED2381E090E0DA
:1003C00021F480E002C080E090E0DF91CF910895B9
:1003D0001F93CF93DF93282F30E0F901E255FF4FB1
:1003E0008491F901E656FF4FD491F901EA57FF4F86
:1003F000C491CC23C9F0162F81110E949601EC2FD5
:10040000F0E0EE0FFF1FEE58FF4FA591B4918FB7AC
:10041000F894111105C09C91ED2FE095E92302C0DD
:10042000EC91ED2BEC938FBFDF91CF911F9108954D
:10043000CF93DF9390E0FC01E656FF4F2491FC013F
:10044000EA57FF4F8491882361F190E0880F991F4C
:10045000FC01E859FF4FC591D491FC01EE58FF4FC4
:10046000A591B491611109C09FB7F8948881209536
:1004700082238883EC912E230BC0623061F49FB7F6
:10048000F8943881822F809583238883EC912E2BDA
:100490002C939FBF06C08FB7F894E8812E2B28833A
:1004A0008FBFDF91CF9108953FB7F8948091F70106
:1004B0009091F801A091F901B091FA0126B5A89B9D
:1004C00005C02F3F19F00196A11DB11D3FBFBA2FE6
:1004D000A92F982F8827820F911DA11DB11DBC0146
:1004E000CD0142E0660F771F881F991F4A95D1F70B
:1004F00008958F929F92AF92BF92CF92DF92EF9228
:10050000FF926B017C010E9454024B015C01C114FB
:10051000D104E104F104F1F00E945402DC01CB01AA
:1005200088199909AA09BB09883E9340A105B1051C
:1005300070F321E0C21AD108E108F10888EE880EB4
:1005400083E0981EA11CB11CC114D104E104F10484
:1005500019F7DDCFFF90EF90DF90CF90BF90AF9075
:100560009F908F900895009769F0FC010190002002
:10057000E9F73197AF01481B590BBC0184E192E0C8
:100580000C948C0080E090E008958F929F92AF923F
:10059000BF92CF92DF92EF92FF920F931F93CF9370
:1005A000DF93CDB7DEB7A1970FB6F894DEBF0FBECD
:1005B000CDBF6C01990FEE08FF08F7FE31C0E09146
:1005C0001402F09115020190F081E02D6DE284E1BA
:1005D00092E009958C0122273327A9012C193D09A6
:1005E0004E095F0919A2CE0181967C019AE0892EFD
:1005F000912CA12CB12CCA01B901A50194010E9432
:10060000C807605DF70162937F012115310541053F
:10061000510589F7CF010E94B302080F191F1EC0B0
:10062000A701960119A28E010F5D1F4F8AE0C82E07
:10063000D12CE12CF12CCA01B901A70196010E942D
:10064000C807605DF80162938F01211531054105EE
:10065000510589F7CF010E94B3028C0185E791E033
:100660000E94B302800F911FA1960FB6F894DEBFCF
:100670000FBECDBFDF91CF911F910F91FF90EF90F3
:10068000DF90CF90BF90AF909F908F9008950E9481
:1006900035091F920F920FB60F9211242F933F939B
:1006A0004F935F936F937F938F939F93AF93BF937A
:1006B000EF93FF9384E192E00E940201FF91EF919A
:1006C000BF91AF919F918F917F916F915F914F916A
:1006D0003F912F910F900FBE0F901F9018951F9272
:1006E0000F920FB60F9211242F938F939F93EF9336
:1006F000FF93E0912402F09125028081E0912A028B
:10070000F0912B0282FD12C0908180912D028F5FAB
:100710008F7320912E02821751F0E0912D02F0E0AC
:10072000EC5EFD4F958F80932D0201C08081FF917B
:10073000EF919F918F912F910F900FBE0F901F906F
:1007400018951F920F920FB60F9211242F933F937B
:100750008F939F93AF93BF938091F3019091F40196
:10076000A091F501B091F6013091F20123E0230F41
:100770002D3720F40196A11DB11D05C026E8230FD9
:100780000296A11DB11D2093F2018093F301909375
:10079000F401A093F501B093F6018091F7019091D7
:1007A000F801A091F901B091FA010196A11DB11DC6
:1007B0008093F7019093F801A093F901B093FA01A7
:1007C000BF91AF919F918F913F912F910F900FBE4D
:1007D0000F901F9018951F920F920FB60F92112431
:1007E0002F933F934F935F936F937F938F939F9339
:1007F000AF93BF93CF93DF93EF93FF93809100026A
:10080000882319F18091FC0191E0980F9093FC01ED
:1008100081111BC0C091FE018091FF01C817E0F05B
:100820006091FB018AE00E94E80160E08091000194
:100830000E94E801109200028091F0019091F10174
:1008400001969093F1018093F0018091FC01883032
:1008500008F11092FC011EC0EC2FF0E0EF5FFE4F9C
:1008600090818091FD01D1E0D80FD093FD0161E02E
:1008700070E001C0660F8A95EAF769238091000154
:100880000E94E801D63008F31092FD01CF5FC093BB
:10089000FE01DBCFFF91EF91DF91CF91BF91AF913F
:1008A0009F918F917F916F915F914F913F912F9188
:1008B0000F900FBE0F901F901895CF93DF93CDB779
:1008C000DEB72E970FB6F894DEBF0FBECDBF78947B
:1008D00084B5826084BD84B5816084BD85B5826045
:1008E00085BD85B5816085BD80916E0081608093F6
:1008F0006E0010928100809181008260809381005F
:10090000809181008160809381008091800081606E
:10091000809380008091B10084608093B1008091C9
:10092000B00081608093B00080917A0084608093F1
:100930007A0080917A00826080937A0080917A00B8
:10094000816080937A0080917A00806880937A0039
:100950001092C10061E089E00E941802E091240237
:10096000F091250282E08083E0912002F091210243
:100970001082E0912202F09123028FEC808310928A
:100980002C02E0912802F091290286E08083E09118
:100990002602F0912702808180618083E091260207
:1009A000F0912702808188608083E0912602F09197
:1009B0002702808180688083E0912602F0912702DF
:1009C00080818F7D808381E08093FB018CE0809328
:1009D00000018EE0E5E4F1E08E010F5F1F4FD801CA
:1009E00001900D928A95E1F76E0123E0C20ED11CB1
:1009F000FF24F394D6016D917D916D0180E090E02C
:100A00000E94A1089B01AC0160E074E284E79BE4D2
:100A10000E94F9079B01AC0160E070E080E89FE371
:100A20000E94F9079B01AC016FE672E183E898E34D
:100A30000E94F9070E946B084B015C01B2E08B1A1F
:100A40009108A108B108EDEF8E16EFEF9E06A10404
:100A5000B10408F442C2F394F7E0FF12CBCF623046
:100A600071058105910568F161157105F1E08F0748
:100A7000910538F5FF2029F11092800028E020939D
:100A8000810020918100F22AF09281007093890008
:100A90006093880080916F00826080936F0061E0B6
:100AA000809100010E94180260E08BE00E94180211
:100AB00061E08AE00E9418026091FB018AE00E94D6
:100AC000E80188E791E00E94B30285E791E00E9487
:100AD000B302A4EECA2EADEFDA2EEE24EA94FE2C79
:100AE00020E420937C0080917A00806480937A00D7
:100AF00080917A0086FDFCCF20917800809179006A
:100B000030E0382B3093130220931202C901330FC7
:100B1000AA0BBB0B9C01AD01265232404109510981
:100B2000A4E6B0E00E94BD07A70196010E949E07BF
:100B3000309311022093100210920B0210920C02BB
:100B400010920D0210920E0210920F0261E08FE0DF
:100B50000E94180260E08FE00E94E80164E170E00A
:100B600080E090E00E94790261E08FE00E94E8015D
:100B70008BE990E00197F1F760E08FE00E941802A6
:100B8000F1E1AF2EF7E2BF2E8FE00E94BF01892B6B
:100B900029F471E0A71AB108B9F778C0E1E1AE2EE7
:100BA000E7E2BE2E8FE00E94BF01019729F481E0A9
:100BB000A81AB108B9F76AC068E2862E912C77E0CE
:100BC000B72EA12C51E1652E57E2752E8FE00E94C1
:100BD000BF01892B29F491E0691A7108B9F756C051
:100BE0000E9454021B012C0141E1642E47E2742E45
:100BF0008FE00E94BF01019729F4A1E06A1A7108F1
:100C0000B9F744C00E945402DC01CB018219930958
:100C1000A409B5098997A105B10570F0EA2DF0E0A6
:100C2000ED5FFD4F208581E090E00B2C01C0880F27
:100C30000A94EAF7822B8087B11004C0A39437E0AE
:100C4000B32E01C0BA94B1E08B1A910809F0BACF63
:100C500060910B0270E080E090E00E94A108609338
:100C60000302709304028093050290930602609140
:100C70000D0270E080E090E00E94A10860930702FE
:100C8000709308028093090290930A026091070210
:100C9000709108028091090290910A020E946B08EB
:100CA000709302026093010288EA91E00E94B3020D
:100CB00080910102909102020E94C50286EC91E0AF
:100CC0000E94B30280911002909111020E94C5020D
:100CD0009090010280900202B0901002A090110248
:100CE00061E089E00E94E8011F9281E08F93EFE7C5
:100CF000EF9388EF8F938F929F92AF92BF92A1EE66
:100D0000B1E0BF93AF931F930F930E943A09F8018C
:100D100001900020E9F73197AF01401B510BA42E41
:100D20000FB6F894DEBF0FBECDBF9BE1941708F459
:100D3000C3C0809100028111FCCFE3E0E40F2E2FAD
:100D40002095A0E12A9FB00111246227262F30E0D0
:100D5000922F88278F6FB901F4E075956795FA9502
:100D6000E1F786279727A3E0220F331FAA95E1F723
:100D700082279327AE2FB0E024E0B595A7952A955A
:100D8000E1F7AB59BE4F2C9120930901EF70F0E0D1
:100D9000EB59FE4F208120930A01ACE0B1E09801AD
:100DA000622F601B6A15C8F5F901B1909F016B2D88
:100DB000682770E1679FF0011124E6276E2F70E02D
:100DC000F62FEE27892F99278E2B9F2BFB0154E0BE
:100DD000F595E7955A95E1F78E279F27E3E0660F93
:100DE000771FEA95E1F786279727BD0161507109C2
:100DF000EB2DF0E054E0F595E7955A95E1F7EB59C6
:100E0000FE4F9080FB019082EB2DEF70F0E0EB59EC
:100E1000FE4F60816C931296C3CF4F5F440F809555
:100E20009095A42FB0E0A75FBE4FFC0124E0F6959B
:100E3000E7952A95E1F7EF70FF27EB59FE4F2081E8
:100E40002C93E1E0E40FF0E0E75FFE4FDC01AF70D0
:100E5000BB27AB59BE4F2C912083E2E0E40FF0E0BA
:100E6000E75FFE4FDC01AB2FBB27A295AF70AB59FC
:100E7000BE4F2C912083A3E0A40FB0E0A75FBE4F2C
:100E8000892F9927FC01EF70FF27EB59FE4F8081D6
:100E90008C93445F4093FF011092FE011092FD017C
:100EA0001092FC016091FB01BB24B3946B258AE096
:100EB0000E94E801B0920002809100028111FCCFF3
:100EC00060E089E00E94E80168EB7BE080E090E070
:100ED0000E9479020E948C0103CE26E0F212CACD54
:100EE000F0CDE4E1F2E01382128288EE93E0A0E01C
:100EF000B0E084839583A683B78387E591E09183EF
:100F0000808385EC90E09587848784EC90E09787D8
:100F1000868780EC90E0918B808B81EC90E0938BC6
:100F2000828B82EC90E0958B848B86EC90E0978BA3
:100F3000868B118E128E138E148E0895052E97FBBC
:100F40001EF400940E94B50757FD07D00E94C80701
:100F500007FC03D04EF40C94B5075095409530959E
:100F600021953F4F4F4F5F4F089590958095709515
:100F700061957F4F8F4F9F4F08950E94EA07A59F6D
:100F8000900DB49F900DA49F800D911D1124089584
:100F9000A1E21A2EAA1BBB1BFD010DC0AA1FBB1F7D
:100FA000EE1FFF1FA217B307E407F50720F0A21BEF
:100FB000B30BE40BF50B661F771F881F991F1A945C
:100FC00069F760957095809590959B01AC01BD0186
:100FD000CF010895A29FB001B39FC001A39F700DE0
:100FE000811D1124911DB29F700D811D1124911D31
:100FF00008950E940D080C94F5080E94EE0858F020
:101000000E94E70840F029F45F3F29F00C94DE08C5
:1010100051110C9429090C94E4080E94060968F304
:101020009923B1F3552391F3951B550BBB27AA27A1
:1010300062177307840738F09F5F5F4F220F331FDB
:10104000441FAA1FA9F335D00E2E3AF0E0E832D0A3
:1010500091505040E695001CCAF72BD0FE2F29D0A6
:10106000660F771F881FBB1F261737074807AB0778
:10107000B0E809F0BB0B802DBF01FF2793585F4FED
:101080003AF09E3F510578F00C94DE080C94290943
:101090005F3FE4F3983ED4F3869577956795B795CF
:1010A000F7959F5FC9F7880F911D9695879597F9DA
:1010B0000895E1E0660F771F881FBB1F6217730753
:1010C0008407BA0720F0621B730B840BBA0BEE1F68
:1010D00088F7E09508950E9472086894B1110C9405
:1010E000290908950E940E0988F09F5798F0B92F9A
:1010F0009927B751B0F0E1F0660F771F881F991F4D
:101100001AF0BA95C9F714C0B13091F00E942809BD
:10111000B1E008950C942809672F782F8827B85FCD
:1011200039F0B93FCCF3869577956795B395D9F7A4
:101130003EF490958095709561957F4F8F4F9F4FAE
:101140000895E89409C097FB3EF4909580957095BA
:1011500061957F4F8F4F9F4F9923A9F0F92F96E903
:10116000BB279395F695879577956795B795F11178
:10117000F8CFFAF4BB0F11F460FF1BC06F5F7F4F15
:101180008F4F9F4F16C0882311F096E911C0772327
:1011900021F09EE8872F762F05C0662371F096E830
:1011A000862F70E060E02AF09A95660F771F881FFF
:1011B000DAF7880F9695879597F9089597F99F67BD
:1011C00080E870E060E008959FEF80EC08950024CF
:1011D0000A941616170618060906089500240A949C
:1011E00012161306140605060895092E0394000C22
:1011F00011F4882352F0BB0F40F4BF2B11F460FFB1
:1012000004C06F5F7F4F8F4F9F4F089557FD9058D9
:10121000440F551F59F05F3F71F04795880F97FBBA
:10122000991F61F09F3F79F0879508951216130674
:101230001406551FF2CF4695F1DF08C016161706A3
:101240001806991FF1CF86957105610508940895D8
:10125000E894BB2766277727CB0197F90895EE0F0F
:10126000FF1F0590F491E02D099481E090E0F8943F
:101270000C94120CAEE0B0E0E0E4F9E00C94E90B61
:101280000D891E8986E08C831A8309838FEF9FE77F
:101290009E838D83AE01475E5F4F6F89788DCE014F
:1012A00001960E945D092F813885F801E20FF31F36
:1012B00010822E96E4E00C94050CACE0B0E0E3E67E
:1012C000F9E00C94DB0B7C016B018A01FC011782B5
:1012D0001682838181FFBDC1CE0101964C01F701C9
:1012E0009381F60193FD859193FF81916F0188238E
:1012F00009F4ABC1853239F493FD859193FF819157
:101300006F01853229F4B70190E00E94450BE7CFC9
:10131000512C312C20E02032A0F48B3269F030F4D3
:10132000803259F0833269F420612CC08D3239F05B
:10133000803339F4216026C02260246023C02860F5
:1013400021C027FD27C030ED380F3A3078F426FF52
:1013500006C0FAE05F9E300D1124532E13C08AE0C0
:10136000389E300D1124332E20620CC08E3221F4B1
:1013700026FD6BC1206406C08C3611F4206802C0C3
:10138000883641F4F60193FD859193FF81916F01B9
:101390008111C1CF982F9F7D9554933028F40C5F15
:1013A0001F4FFFE3F9830DC0833631F0833771F0AF
:1013B000833509F05BC022C0F801808189830E5F0C
:1013C0001F4F44244394512C540115C03801F2E0BE
:1013D0006F0E711CF801A080B18026FF03C0652D3F
:1013E00070E002C06FEF7FEFC5012C870E943A0BBF
:1013F0002C0183012C852F77222E17C03801F2E0B3
:101400006F0E711CF801A080B18026FF03C0652D0E
:1014100070E002C06FEF7FEFC5012C870E942F0B99
:101420002C012C852068222E830123FC1BC0832DD8
:1014300090E048165906B0F4B70180E290E00E94AF
:10144000450B3A94F4CFF50127FC859127FE819155
:101450005F01B70190E00E94450B31103A94F1E032
:101460004F1A51084114510471F7E5C0843611F048
:10147000893639F5F80127FF07C0608171818281C3
:1014800093810C5F1F4F08C060817181072E000C93
:10149000880B990B0E5F1F4F2F76722E97FF09C096
:1014A00090958095709561957F4F8F4F9F4F2068E5
:1014B000722E2AE030E0A4010E947D0BA82EA8180D
:1014C00044C0853729F42F7EB22E2AE030E025C0B3
:1014D000F22FF97FBF2E8F36C1F018F4883579F0DE
:1014E000B4C0803719F0883721F0AFC02F2F2061AA
:1014F000B22EB4FE0DC08B2D8460B82E09C024FF1F
:101500000AC09F2F9660B92E06C028E030E005C0C3
:1015100020E130E002C020E132E0F801B7FE07C070
:1015200060817181828193810C5F1F4F06C0608151
:10153000718180E090E00E5F1F4FA4010E947D0B3F
:10154000A82EA818FB2DFF777F2E76FE0BC0372D17
:101550003E7FA51450F474FE0AC072FC08C0372DFB
:101560003E7E05C0BA2C372D03C0BA2C01C0B52C65
:1015700034FF0DC0FE01EA0DF11D8081803311F4AE
:10158000397E09C032FF06C0B394B39404C0832FE0
:10159000867809F0B39433FD13C030FF06C05A2C8F
:1015A000B31418F4530C5B18B32CB31468F4B701DC
:1015B00080E290E03C870E94450BB3943C85F5CFD8
:1015C000B31410F43B1801C0312C34FF12C0B70122
:1015D00080E390E03C870E94450B3C8532FF17C0BA
:1015E00031FD03C088E790E002C088E590E0B701D4
:1015F0000CC0832F867859F031FF02C08BE201C006
:1016000080E237FD8DE2B70190E00E94450BA51402
:1016100038F4B70180E390E00E94450B5A94F7CF6D
:10162000AA94F401EA0DF11D8081B70190E00E94B7
:10163000450BA110F5CF332009F451CEB70180E25C
:1016400090E00E94450B3A94F6CFF701868197818E
:1016500002C08FEF9FEF2C96E2E10C94F70BFC0198
:101660000590615070400110D8F7809590958E0FCD
:101670009F1F0895FC016150704001900110D8F740
:10168000809590958E0F9F1F08950F931F93CF9372
:10169000DF93FB01238121FD03C08FEF9FEF28C063
:1016A00022FF16C046815781248135814217530796
:1016B00044F4A081B1819D012F5F3F4F318320838E
:1016C0008C93268137812F5F3F4F3783268310C04D
:1016D000EB01092F182F0084F185E02D0995892B46
:1016E000E1F68E819F8101969F838E83812F902FBB
:1016F000DF91CF911F910F910895FA01AA27283009
:1017000051F1203181F1E8946F936E7F6E5F7F4FCE
:101710008F4F9F4FAF4FB1E03ED0B4E03CD0670F4A
:10172000781F891F9A1FA11D680F791F8A1F911D9D
:10173000A11D6A0F711D811D911DA11D20D009F4ED
:1017400068943F912AE0269F11243019305D31932F
:10175000DEF6CF010895462F4770405D4193B3E018
:101760000FD0C9F7F6CF462F4F70405D4A3318F0BF
:10177000495D31FD4052419302D0A9F7EACFB4E070
:10178000A6959795879577956795BA95C9F7009728
:101790006105710508959B01AC010A2E06945795C9
:1017A000479537952795BA95C9F7620F731F841F20
:1017B000951FA01D08952F923F924F925F926F92B6
:1017C0007F928F929F92AF92BF92CF92DF92EF92D1
:1017D000FF920F931F93CF93DF93CDB7DEB7CA1B52
:1017E000DB0B0FB6F894DEBF0FBECDBF09942A887D
:1017F000398848885F846E847D848C849B84AA8425
:10180000B984C884DF80EE80FD800C811B81AA81B1
:10181000B981CE0FD11D0FB6F894DEBF0FBECDBF7C
:08182000ED010895F894FFCFDB
:101828000C2A2A2A2A2A2A382C0000000000000044
:1018380000000000000000000000000000000000A0
:101848000000000000000000000000000000000090
:101858000000000000000000000000000000000080
:101868000000000000000001000800400000010026
:1018780004050D0000000023018C00BB006A01EC88
:1018880000CA00DE000D0E131516191A1C23252692
:10189800292A2C32340D0A002053797374656D207F
:1018A80073746172746564207375636365737366BA
:1018B800756C6C7920284661726D20312046617202
:1018C8006D20556E6974290054656D706572617478
:1018D8007572652053656E736F72207265616469F5
:1018E8006E67733A20004D6F697374757265205383
:1018F800656E736F722072656164696E67733A20F2
:0E1908000025642C25642C25642C25642C00FD
:107800000C94343C0C94513C0C94513C0C94513CE1
:107810000C94513C0C94513C0C94513C0C94513CB4
:107820000C94513C0C94513C0C94513C0C94513CA4
:107830000C94513C0C94513C0C94513C0C94513C94
:107840000C94513C0C94513C0C94513C0C94513C84
:107850000C94513C0C94513C0C94513C0C94513C74
:107860000C94513C0C94513C11241FBECFEFD8E036
:10787000DEBFCDBF11E0A0E0B1E0ECE9FFE702C060
:1078800005900D92A230B107D9F712E0A2E0B1E065
:1078900001C01D92AD30B107E1F70E942D3D0C945F
:1078A000CC3F0C94003C982F959595959595959582
:1078B000905D8F708A307CF0282F295A8091C0000B
:1078C00085FFFCCF9093C6008091C00085FFFCCF60
:1078D0002093C6000895282F205DF0CF982F809127
:1078E000C00085FFFCCF9093C6000895EF92FF92F1
:1078F0000F931F93EE24FF2487018091C00087FD22
:1079000017C00894E11CF11C011D111D81E4E8164B
:1079100082E4F8068FE0080780E0180770F3E09132
:107920000401F091050109958091C00087FFE9CF1E
:107930008091C6001F910F91FF90EF9008950E94D3
:10794000763C982F8091C00085FFFCCF9093C600B5
:1079500091362CF490330CF09053892F089597555D
:10796000892F08951F930E949F3C182F0E949F3CCF
:107970001295107F810F1F9108951F93182F882350
:1079800021F00E94763C1150E1F71F9108951F935A
:10799000182F0E94763C803249F0809103018F5F5E
:1079A000809303018530C1F01F9108958091C0003C
:1079B00085FFFCCF84E18093C6008091C00085FFE5
:1079C000FCCF1093C6008091C00085FFFCCF80E102
:1079D0008093C6001F910895E0910401F091050184
:1079E00009951F9108950E94763C803241F0809164
:1079F00003018F5F80930301853081F008958091AA
:107A0000C00085FFFCCF84E18093C6008091C00058
:107A100085FFFCCF80E18093C6000895E0910401CA
:107A2000F09105010995089540E951E08823A1F0FE
:107A30002D9A28EE33E0FA013197F1F721503040CA
:107A4000D1F72D9828EE33E0FA013197F1F7215064
:107A50003040D1F7815061F708953F924F925F9285
:107A60006F927F928F929F92AF92BF92CF92DF924E
:107A7000EF92FF920F931F93CF93DF93000080E16B
:107A80008093C4001092C50088E18093C10086E015
:107A90008093C2005098589A259A81E00E94143D24
:107AA00024E1F22E9EE1E92E85E9D82E0FE0C02ECA
:107AB00010E1B12EAA24A394B1E49B2EA6E58A2E50
:107AC000F2E57F2EE0E26E2E79E4572E63E5462E36
:107AD00050E5352E0E94763C8033B1F18133B9F107
:107AE000803409F46FC0813409F476C0823409F41B
:107AF00085C0853409F488C0803531F1823521F1A3
:107B0000813511F1853509F485C0863509F48DC0BC
:107B1000843609F496C0843709F403C1853709F423
:107B200072C1863709F466C0809103018F5F80932C
:107B30000301853079F6E0910401F0910501099582
:107B40000E94763C803351F60E94F33CC3CF0E94E2
:107B5000763C803249F78091C00085FFFCCFF092DF
:107B6000C6008091C00085FFFCCF9092C600809136
:107B7000C00085FFFCCF8092C6008091C00085FFC9
:107B8000FCCF7092C6008091C00085FFFCCF609250
:107B9000C6008091C00085FFFCCF5092C600809146
:107BA000C00085FFFCCF4092C6008091C00085FFD9
:107BB000FCCF3092C6008091C00085FFFCCFB09210
:107BC000C60088CF0E94763C863808F4BDCF0E945C
:107BD000763C0E94F33C7ECF0E94763C803809F4CC
:107BE0009CC0813809F40BC1823809F43CC1883942
:107BF00009F48FC080E00E94C73C6CCF84E10E94F2
:107C0000BD3C0E94F33C66CF85E00E94BD3C0E94D3
:107C1000F33C60CF0E94763C809306010E94763C44
:107C2000809307010E94F33C55CF0E94763C80333D
:107C300009F41DC183E00E94BD3C80E00E94C73C66
:107C400049CF0E94763C809309020E94763C809343
:107C5000080280910C028E7F80930C020E94763C79
:107C6000853409F415C18091080290910902892B8D
:107C700089F000E010E00E94763CF801E85FFE4FDA
:107C800080830F5F1F4F80910802909109020817AF
:107C9000190788F30E94763C803209F045CF809125
:107CA0000C0280FF01C16091060170910701660F0F
:107CB000771F7093070160930601A0910802B091AD
:107CC00009021097C9F0E8E0F1E09B01AD014E0F09
:107CD0005F1FF999FECF32BD21BD819180BDFA9A17
:107CE000F99A2F5F3F4FE417F50799F76A0F7B1F4B
:107CF00070930701609306018091C00085FFFCCF5F
:107D0000F092C6008091C00085FFFCCFB092C60003
:107D1000E1CE83E00E94C73CDDCE82E00E94C73CFA
:107D2000D9CE0E94763C809309020E94763C8093D3
:107D300008028091060190910701880F991F909386
:107D40000701809306010E94763C853409F4A6C0A1
:107D500080910C028E7F80930C020E94763C8032D0
:107D600009F0B8CE8091C00085FFFCCFF092C6002C
:107D7000609108027091090261157105B9F140E046
:107D800050E080910C02A82FA170B82FB27011C0E2
:107D9000BB2309F45CC0E0910601F0910701319624
:107DA000F0930701E09306014F5F5F4F46175707B7
:107DB000E8F4AA2369F3F999FECF209106013091E6
:107DC000070132BD21BDF89A90B58091C00085FFB2
:107DD000FCCF9093C6002F5F3F4F30930701209355
:107DE00006014F5F5F4F4617570718F38091C00099
:107DF00085FDE5CE8091C00085FFF8CFE0CE81E023
:107E00000E94C73C67CE0E94763C803209F08CCE3F
:107E10008091C00085FFFCCFF092C6008091C00029
:107E200085FFFCCFE092C6008091C00085FFFCCFAB
:107E3000D092C6008091C00085FFFCCFC092C600E2
:107E40008091C00085FFFCCFB092C60043CEE09188
:107E50000601F091070194918091C00085FFFCCF4D
:107E60009093C6009CCF80E10E94C73C33CE0E9415
:107E7000763C0E94763C182F0E94763C112309F430
:107E800083C0113009F484C08FE00E94C73C22CE29
:107E900080910C02816080930C02E5CE80910C02EF
:107EA000816080930C0259CF809107018823880F4D
:107EB000880B8A2180930B02809106019091070123
:107EC000880F991F90930701809306018091080203
:107ED00080FF09C080910802909109020196909359
:107EE000090280930802F894F999FECF1127E091D6
:107EF0000601F0910701C8E0D1E08091080290915D
:107F00000902103091F40091570001700130D9F34B
:107F100003E000935700E89500915700017001308D
:107F2000D9F301E100935700E89509901990009169
:107F3000570001700130D9F301E000935700E89534
:107F40001395103498F011270091570001700130FB
:107F5000D9F305E000935700E895009157000170B0
:107F60000130D9F301E100935700E895329602976A
:107F700009F0C7CF103011F00296E5CF112480919F
:107F8000C00085FFB9CEBCCE8EE10E94C73CA2CD19
:0C7F900085E90E94C73C9ECDF894FFCF0D
:027F9C00800063
:040000030000780081
:00000001FF
