:100000000C948E000C94F9040C94D2040C944E06BB
:100010000C944E060C944E060C94B6000C94B6004C
:100020000C94B6000C94B6000C94B6000C94DE064A
:100030000C94B6000C94B6000C94B6000C94B60068
:100040000C9488040C94B6000C94B0030C948A03AE
:100050000C94B6000C94B6000C94B6000C94B60048
:100060000C9420050C94B600240F5D0F6B0F7D0FD0
:100070008F0FAB0FCB0F4E414E494E495459494E4D
:1000800046CDCCCC3D0AD7233C17B7D13877CC2B03
:10009000329595E6241FB14F0A000020410000C8A8
:1000A0004200401C4620BCBE4CCA1B0E5AAEC59D29
:1000B000746364696E6F70737578585B000000003C
:1000C00000240027002A00000000080002010000B0
:1000D00003040700000000000000000000000025ED
:1000E0000028002B00000000002300260029000447
:1000F00004040404040404020202020202030303CF
:1001000003030301020408102040800102040810C8
:1001100020010204081020006110720911241FBE82
:10012000CFEFD8E0DEBFCDBF27E0A8EFB4E001C03D
:100130001D92A738B207E1F714E0A0E0B1E0E2E9D0
:10014000FBE302C005900D92A83FB107D9F710E07C
:10015000CDE8D0E004C02197FE010E94C815CC383C
:10016000D107C9F70E947C090C94BC1D0C940000B7
:10017000CF92DF92EF92FF920F931F93CF93DF9373
:100180006C017A018B01C0E0D0E0CE15DF0589F06B
:10019000D8016D918D01D601ED91FC910190F08116
:1001A000E02DC6010995892B11F47E0102C021962C
:1001B000ECCFC701DF91CF911F910F91FF90EF908E
:1001C000DF90CF900895FC01538D448D252F30E0B2
:1001D000842F90E0821B930B541710F0CF96089554
:1001E00001970895FC01918D828D981761F0828DA1
:1001F000DF01A80FB11D5D968C91928D9F5F9F735B
:10020000928F90E008958FEF9FEF0895FC01918DFC
:10021000828D981731F0828DE80FF11D858D90E069
:1002200008958FEF9FEF0895FC01918D228D892F06
:1002300090E0805C9F4F821B91098F7399270895EE
:1002400089EB96E00E94140121E0892B09F420E05B
:10025000822F0895FC01848DDF01A80FB11DA35AE0
:10026000BF4F2C91848D90E001968F739927848FD6
:10027000A689B7892C93A089B1898C9180648C93CD
:10028000938D848D981306C00288F389E02D8081B8
:100290008F7D80830895EF92FF920F931F93CF93EA
:1002A000DF93EC0181E0888F9B8D8C8D981305C0C6
:1002B000E889F989808185FD24C0F62E0B8D10E038
:1002C0000F5F1F4F0F731127E02E8C8DE8120CC0AB
:1002D0000FB607FCFACFE889F989808185FFF5CF51
:1002E000CE010E942A01F1CF8B8DFE01E80FF11D96
:1002F000E35AFF4FF0820B8FEA89FB89808180628D
:1003000007C0EE89FF896083E889F989808180646C
:10031000808381E090E0DF91CF911F910F91FF905A
:10032000EF900895CF93DF93EC01888D8823C9F077
:10033000EA89FB89808185FD05C0A889B9898C91EE
:1003400086FD0FC00FB607FCF5CF808185FFF2CF89
:10035000A889B9898C9185FFEDCFCE010E942A0131
:10036000E7CFDF91CF91089580E090E0892B29F0CD
:100370000E94200181110C9400000895833081F0C7
:1003800028F4813099F08230A1F008958730A9F0E7
:100390008830B9F08430D1F4809180008F7D03C023
:1003A000809180008F7780938000089584B58F7747
:1003B00002C084B58F7D84BD08958091B0008F7791
:1003C00003C08091B0008F7D8093B00008953FB747
:1003D000F8948091B6059091B705A091B805B091B9
:1003E000B90526B5A89B05C02F3F19F00196A11DA0
:1003F000B11D3FBFBA2FA92F982F8827820F911DBB
:10040000A11DB11DBC01CD0142E0660F771F881F01
:10041000991F4A95D1F70895089585ED8093BC0002
:100420008091BC0084FDFCCF10928F05089540910F
:100430006905262F30E0240F311D21323105DCF40F
:1004400020918F052430C9F4FC0180E090E08617EC
:1004500058F4309169052191DC01A95BBA4FA30FD3
:10046000B11D2C930196F3CF80916905680F6093BD
:10047000690580E0089581E0089582E00895089577
:100480008FEF9FEF08958FEF9FEF089580914605BE
:1004900090E09195819591090895CF93DF9300D0D5
:1004A000CDB7DEB7CB01642F49835A830E94170270
:1004B0004981842F5A81952F0F900F90DF91CF9112
:1004C0000895CF93DF931F92CDB7DEB7698361E0C4
:1004D000CE0101960E94170281E090E00F90DF911B
:1004E000CF9108952091BC053091BD05281739079B
:1004F00071F49091BA058091BB05981741F0E09195
:10050000BA05F0E0EA5FFA4F808190E008958FEF3E
:100510009FEF089508951F93CF93DF93DC015C96BE
:100520002D913C915D972115310539F481E090E0E2
:1005300013969C938E9312973DC05196ED91FC912A
:10054000529750969C915097892F80951FB75E9631
:100550004C915E9741FB772770F941FD6095F894C7
:100560004081772311F0492B01C048234083E901E2
:100570002197F1F748E0508160FF02C0592B01C07C
:1005800058235083E9012197F1F76695415099F777
:10059000772321F090818923808303C08081982B69
:1005A00090831FBF5C968D919C915D970197F1F7A9
:1005B00021E030E0C901DF91CF911F910895209192
:1005C000BC053091BD052817390771F48091BB0532
:1005D0002091BA0590E0805C9F4F821B910960E4F6
:1005E00070E00E949215089580E090E008952091B7
:1005F000BC053091BD0528173907B9F49091BA05AB
:100600008091BB05981789F0E091BA05F0E0EA5FA8
:10061000FA4F80812091BA0530E02F5F3F4F2F7352
:1006200033272093BA0590E008958FEF9FEF089548
:10063000089580E090E00895809136069091370605
:100640000196909337068093360608950F931F9373
:10065000CF93DF93EC0188819981009729F02A815B
:100660003B812617370788F48B016F5F7F4F0E940D
:100670000F17009761F0998388831B830A832C816D
:100680003D81232B11F4FC01108281E001C080E048
:10069000DF91CF911F910F910895CF93DF93EC01DC
:1006A00088819981009711F00E947716198218822B
:1006B0001D821C821B821A82DF91CF9108956115E1
:1006C000710579F0FB0101900020E9F73197AF0146
:1006D000461B570BDC01ED91FC910280F381E02D6C
:1006E000099480E090E008950F931F93CF93DF93D8
:1006F000EC010E945F038C0162E671E0CE010E9472
:100700005F03800F911FDF91CF911F910F9108958B
:100710000C945F031F920F920FB60F9211242F9328
:100720003F934F935F936F937F938F939F93AF9379
:10073000BF93EF93FF9389EB96E00E942A01FF910C
:10074000EF91BF91AF919F918F917F916F915F9149
:100750004F913F912F910F900FBE0F901F901895C2
:100760001F920F920FB60F9211242F938F939F9386
:10077000EF93FF93E091C906F091CA068081E09162
:10078000CF06F091D00682FD12C090818091D206F2
:100790008F5F8F732091D306821751F0E091D206BC
:1007A000F0E0E754F94F958F8093D20601C0808125
:1007B000FF91EF919F918F912F910F900FBE0F900E
:1007C0001F9018951F93CF93DF93282F30E0F901E6
:1007D000E953FF4F8491F901ED5FFE4FD491F90188
:1007E000E151FF4FC491CC23C9F0162F81110E9413
:1007F000BE01EC2FF0E0EE0FFF1FE552FF4FA59179
:10080000B4918FB7F894111105C09C91ED2FE0952C
:10081000E92302C0EC91ED2BEC938FBFDF91CF91D8
:100820001F910895CF93DF9390E0FC01ED5FFE4FA1
:100830002491FC01E151FF4F8491882361F190E004
:10084000880F991FFC01E354FF4FC591D491FC011F
:10085000E552FF4FA591B491611109C09FB7F8947B
:100860008881209582238883EC912E230BC06230EF
:1008700061F49FB7F8943881822F80958323888311
:10088000EC912E2B2C939FBF06C08FB7F894E88174
:100890002E2B28838FBFDF91CF9108958F929F9247
:1008A000AF92BF92CF92DF92EF92FF926B017C01E9
:1008B0000E94E7014B015C01C114D104E104F10481
:1008C000F1F00E94E701DC01CB0188199909AA091E
:1008D000BB09883E9340A105B10570F321E0C21A1F
:1008E000D108E108F10888EE880E83E0981EA11C6B
:1008F000B11CC114D104E104F10419F7DDCFFF905C
:10090000EF90DF90CF90BF90AF909F908F90089521
:100910001F920F920FB60F9211242F933F938F9334
:100920009F93AF93BF938091C1059091C205A09111
:10093000C305B091C4053091B50523E0230F2D37D1
:1009400020F40196A11DB11D05C026E8230F0296D3
:10095000A11DB11D2093B5058093C1059093C205DB
:10096000A093C305B093C4058091B6059091B705D7
:10097000A091B805B091B9050196A11DB11D809354
:10098000B6059093B705A093B805B093B905BF918C
:10099000AF919F918F913F912F910F900FBE0F902C
:1009A0001F9018951F920F920FB60F9211242F933C
:1009B0003F934F935F936F937F938F939F93AF93E7
:1009C000BF93EF93FF93E0910201F091030109952A
:1009D000FF91EF91BF91AF919F918F917F916F9117
:1009E0005F914F913F912F910F900FBE0F901F90ED
:1009F00018951F920F920FB60F9211242F933F93C9
:100A00004F935F936F937F938F939F93AF93BF9316
:100A1000EF93FF93E0910001F09101010995FF919F
:100A2000EF91BF91AF919F918F917F916F915F9166
:100A30004F913F912F910F900FBE0F901F901895DF
:100A40001F920F920FB60F9211242F933F934F9343
:100A50005F936F937F938F939F93AF93BF93EF9326
:100A6000FF938091B900887F803609F49CC068F5B7
:100A7000883209F45BC090F4803109F454C038F432
:100A8000882309F4F6C0883009F44DC0F6C08831D7
:100A900009F44CC0803209F45DC0EFC0803409F421
:100AA00068C048F4803309F455C0883309F0E5C0C4
:100AB00080938E05D8C0803509F44FC0883509F47D
:100AC0005DC0883409F0D9C0D6C0883909F4C7C0E0
:100AD000A8F4883709F467C038F4883609F463C08D
:100AE000803709F460C0C9C0883809F4B8C08039BB
:100AF00009F45FC0803809F0C0C05BC0803B09F4D6
:100B000086C038F4803A09F466C0883A09F47FC098
:100B1000B4C0803C09F4A7C0883C09F4A4C0883B59
:100B200009F48AC0AAC08091B40510C09091B305A1
:100B30008091B205981770F5E091B30581E08E0FB2
:100B40008093B305F0E0EE56FA4F80818093BB00AE
:100B500085EC86C080938E058EC0E091B30581E060
:100B60008E0F8093B3058091BB00F0E0EE56FA4FF4
:100B700080839091B3058091B2056EC0E091B3057A
:100B800081E08E0F8093B3058091BB00F0E0EE56BC
:100B9000FA4F80838091910581116DC081E080932F
:100BA000900584EA61C083E080938F0510928D05E3
:100BB000CFCF80918D05803208F051C0E0918D0536
:100BC00081E08E0F80938D058091BB00F0E0E359AA
:100BD000FA4F8083BDCF85EC8093BC0010928F05C7
:100BE00080918D05803230F4E0918D05F0E0E3597D
:100BF000FA4F108260918D0570E0E0916B05F091E5
:100C00006C058DE695E0099510928D0536C084E05F
:100C100080938F0510926A0510926905E09167052F
:100C2000F0916805099580916905811105C081E001
:100C30008093690510924705E0916A0581E08E0F67
:100C400080936A05F0E0E95BFA4F80818093BB00F6
:100C500090916A0580916905981708F479CF85E825
:100C60008093BC000AC085EC8093BC0010928F0575
:100C700004C010928E050E940D02FF91EF91BF916A
:100C8000AF919F918F917F916F915F914F913F9124
:100C90002F910F900FBE0F901F9018951F920F92DB
:100CA0000FB60F9211242F933F934F935F936F933F
:100CB0007F938F939F93AF93BF93EF93FF93E091B5
:100CC000BC05F091BD05309709F451C0968DA685FD
:100CD000B785858591FF04C09C91892329F447C07D
:100CE0009C91892309F043C0A389B4899C9185898B
:100CF000809589238C93868997890197F1F7608D78
:100D0000718DA685B785558538E020E0CB01019728
:100D1000F1F7822F90E095958795282F4C914523E8
:100D200009F02068315091F7868D81FD20958091E2
:100D3000BB0590E001968F7399273091BA0538175B
:100D400049F0A091BB05B0E0AA5FBA4F2C93809305
:100D5000BB0503C0868D8160868F828D938D019740
:100D6000F1F7A389B4899C918589892B8C93FF9194
:100D7000EF91BF91AF919F918F917F916F915F9113
:100D80004F913F912F910F900FBE0F901F9018958C
:100D9000E091BC05F091BD05E817F90769F4A38956
:100DA000B4899C918589809589238C931092BD0587
:100DB0001092BC0581E0089580E008951F920F9283
:100DC0000FB60F9211242F933F934F935F936F931E
:100DD0007F938F939F93AF93BF93CF93DF93EF93C3
:100DE000FF938091C005882331F180910505811121
:100DF00022C02091040130E0F901E953FF4F8491B2
:100E0000F901ED5FFE4FD491F901E151FF4FC4911B
:100E1000CC2369F181110E94BE01EC2FF0E0EE0FAE
:100E2000FF1FEB51FF4FA591B491EC91ED2381E0B1
:100E3000F1F08093040580910505882341F08091AD
:100E4000030591E0980F90930305882391F080911A
:100E50000305883010F0109203058091C0058823A7
:100E600009F4C6C0409105054423C1F0C1C080E02B
:100E7000E0CF6091BE058AE00E94E20360E08CE072
:100E80000E94E203109205058091010590910205F0
:100E900001969093020580930105D9CF80910405B6
:100EA000882329F0909100059F5F90930005209181
:100EB000FF049091FE04821759F0903510F02DE157
:100EC00001C02BE0920F9093FE048093FF0403C0B7
:100ED0009C5E9093FE049091FE04903A08F488C0C2
:100EE0002091FC043091FD04369527953093FD0444
:100EF0002093FC0480910005853028F03860309301
:100F0000FD042093FC04905A9093FE041092000577
:100F10008091BF05882309F45BC09091FB049F5F1B
:100F20009093FB049C3008F463C02091FC04309142
:100F3000FD04822F8F73ECE0F1E0DF0190E05D9122
:100F4000851721F09F5F9031D1F790E050E1959F98
:100F5000C001112496E0369527959A95E1F730E087
:100F60005191251721F03F5F3031D1F701C0432F58
:100F7000842B9091E30591110EC08093FA049CEFAD
:100F8000980F9B3140F01092BF058091F9048F5F5C
:100F90008093F9042DC0E091E30591E09E0F9093BA
:100FA000E305F0E0EB53FA4F80839091E3058091E5
:100FB000FA04981750F01092BF058091F8048F5FE3
:100FC0008093F80481E08093E4051092FB0410C044
:100FD0008091FC049091FD0488339B4049F481E0AA
:100FE0008093BF051092FB041092E3051092E40574
:100FF000FF91EF91DF91CF91BF91AF919F918F9131
:101000007F916F915F914F913F912F910F900FBE04
:101010000F901F90189586E597E00E94DF02892BBC
:1010200051F086E597E00E94F702682F89EB96E081
:101030000E944B01F0CF089580E5E5EEF5E0DF0179
:101040001D928A95E9F7109235060895E091B90648
:10105000F091BA060190F081E02D682F89EB96E0BF
:1010600009948F929F92AF92BF920F931F93CF9349
:10107000DF93CDB7DEB7A1970FB6F894DEBF0FBEF2
:10108000CDBF19A2423008F44AE08E010F5D1F4F18
:10109000842E912CA12CB12CA50194010E94A6159F
:1010A000E62FB901CA0101501109EA3014F4E05DDC
:1010B00001C0E95CD801EC93232B242B252B61F78D
:1010C000B80189EB96E00E945F03A1960FB6F894F1
:1010D000DEBF0FBECDBFDF91CF911F910F91BF90AB
:1010E000AF909F908F9008954F925F926F927F92F2
:1010F0008F929F92AF92BF92CF92DF92EF92FF9228
:101100006B017C019B01AC010E948D15882319F0B5
:101110006BEE74E01AC046015701E894B7F82FEF60
:101120003FEF4FE75FE7C501B4010E948D158111C4
:1011300012C02FEF3FEF4FE75FE7C501B4010E94F8
:10114000FB12181644F46FEE74E089EB96E00E94EF
:101150005F037C017FC02FEF3FEF4FE75FE4C701E4
:10116000B6010E94881518161CF463EF74E0EDCFE9
:101170002FEF3FEF4FE75FECC701B6010E94FB1274
:1011800087FDF3CF20E030E0A901C701B6010E943E
:10119000FB1287FF09C08DE20E9426085C01F7FA66
:1011A000F094F7F8F09402C0A12CB12C2AE037EDAE
:1011B00043EA5BE3C701B6010E9474142B013C01B2
:1011C0000E9459156B017C010E9400139B01AC0128
:1011D000C301B2010E9473142B013C014AE0C70114
:1011E000B6010E9431087C01EA0CFB1C8EE20E94D1
:1011F0002608E80EF91E20E030E040E251E4C30189
:10120000B2010E9461132B013C010E9459154B0150
:10121000A12CB12C4AE0C501B4010E943108E80EAE
:10122000F91EC501B4010E9400139B01AC01C3016A
:10123000B2010E94731420E030E040E251E40E94C9
:1012400061130E94591580E090E04AE00E94310845
:10125000E80EF91E62E671E089EB96E00E945F03FA
:101260008E0D9F1DFF90EF90DF90CF90BF90AF90BD
:101270009F908F907F906F905F904F900895CF9246
:10128000DF92EF92FF92CF93DF936C01990FEE08FC
:10129000FF08F7FE12C08DE20E942608EC016627C7
:1012A0007727CB016C197D098E099F094AE00E94BE
:1012B00031087C01EC0EFD1E06C04AE0C701B601F4
:1012C0000E9431087C0162E671E089EB96E00E94A1
:1012D0005F038E0D9F1DDF91CF91FF90EF90DF9008
:1012E000CF90089584E591E0909357078093560737
:1012F00086E597E00C94C806CF93DF93CDB7DEB7B1
:10130000A5970FB6F894DEBF0FBECDBF789484B515
:10131000826084BD84B5816084BD85B5826085BDF1
:1013200085B5816085BD80916E00816080936E007F
:101330001092810080918100826080938100809171
:101340008100816080938100809180008160809322
:1013500080008091B10084608093B1008091B000E2
:1013600081608093B00080917A00846080937A00DD
:1013700080917A00826080937A0080917A00816007
:1013800080937A0080917A00806880937A0010922E
:10139000C100E091C906F091CA0682E08083E09125
:1013A000C506F091C6061082E091C706F091C80606
:1013B0008FEC80831092D106E091CD06F091CE069D
:1013C00086E08083E091CB06F091CC06808180613D
:1013D0008083E091CB06F091CC0680818860808389
:1013E000E091CB06F091CC06808180688083E0910B
:1013F000CB06F091CC0680818F7D8083109271079F
:101400001092700710926F0710926E0710926D077E
:1014100010926C078DE991E09093730780937207A7
:1014200090916207963108F057C02DEB30E0309371
:101430006D0720936C072BE931E030936F07209301
:101440006E072CE231E030937107209370072091F2
:101450006800983050F031E09E3008F430E081E0D0
:1014600001C0880F3A95EAF701C084E0822B80938F
:101470006800983038F09E3040F0963148F020E017
:1014800030E008C02DE630E005C02BE630E002C0B9
:101490002CE630E030936A0720936907983030F4E7
:1014A00081E001C0880F9A95EAF70EC0292F30E03D
:1014B0009E3018F42850310902C02E50310981E0C5
:1014C00001C0880F2A95EAF780936B078091720715
:1014D000909173070197F1F78091700790917107D0
:1014E000892B21F18091BC059091BD0527E08635BF
:1014F0009207E1F0009711F00E94C80680917407EE
:101500008E7F809374071092BB051092BA0586E512
:1015100097E09093BD058093BC05E0916907F09139
:101520006A07908180916B07892B808361E08AE054
:101530000E94120461E08BE00E94120461E08DE0E1
:101540000E94120461E084E00E94120460E082E0E4
:101550000E9412048CE193E09093010180930001BA
:1015600080916900836080936900E89A81E08093AC
:10157000BE058CE0809304018EE0ECE1F1E08E0189
:101580000F5F1F4FD80101900D928A95E1F76E0110
:1015900053E0C50ED11CFF24F394F60161917191C3
:1015A0006F0180E090E00E9400139B01AC0160E0BD
:1015B00074E284E79BE40E94E0149B01AC0160E0CC
:1015C00070E080E89FE30E94E0149B01AC016FE6AD
:1015D00072E183E898E30E94E0140E9452154B01E7
:1015E0005C01F2E08F1A9108A108B1082DEF821674
:1015F0002FEF9206A104B10408F47FC0F39457E0E2
:10160000F512CBCF623071058105910568F1611546
:101610007105E1E08E07910538F5FF2029F1109260
:10162000800028E02093810020918100F22AF0922E
:101630008100709389006093880080916F008260C0
:1016400080936F0061E08CE00E94120460E0809162
:1016500004010E94120461E08AE00E941204609179
:10166000BE058AE00E94E2038091C005811105C099
:1016700081E08093C0051092BF0565E671E089EBBB
:1016800096E00E94740368E873E180E090E00E94B5
:101690004E04812C912C30E1A32E31E4B32E46E090
:1016A000342E53E0C52E65E0D62E61E08AE00E941C
:1016B000E2038FB7F8944091C1055091C205609143
:1016C000C3057091C4058FBF8091E405811119C0D5
:1016D0002FB7F8948091C1059091C205A091C305E0
:1016E000B091C4052FBF841B950BA60BB70B883C8C
:1016F0009105A105B10540F304C0F6E0FF128DCFBE
:10170000B3CF8091E405882309F45FC08091E4059C
:10171000882309F454C08091E30583508E3108F08A
:101720008EE1E82EF12CA70166EC75E0C8010E945D
:10173000D9171092E4054091E305E5ECF5E08FEF51
:101740009FEF4150F0F06191682750E1659F900153
:101750001124622770E0362F2227892F9927822BA8
:10176000932B9B01B4E035952795BA95E1F7822735
:10177000932723E0660F771F2A95E1F7862797279F
:10178000E0CF883B904FD9F462E971E089EB96E0B5
:101790000E947403A8E3B6E0F801CF01801B910B0F
:1017A0008E159F051CF481918D93F7CF60E08AE040
:1017B0000E94E20338E3E32E36E0F32E0EC063EA24
:1017C00071E089EB96E00E94740360E08AE00E9479
:1017D000E20329E2E22E23E0F22EF092B806E09234
:1017E000B70668EB7BE080E090E00E944E04F9E2EF
:1017F000EF16F3E0FF0609F457C48FEA96E09F93D3
:101800008F9381EB96E09F938F9383EB96E09F936A
:101810008F9385EB96E09F938F9387EB91E09F9357
:101820008F93FF92EF920E94151868EE73E080E0AC
:1018300090E00E944E0463EC71E089EB96E00E9418
:1018400088038091B5069091B6060E943F0960EE2C
:1018500071E089EB96E00E9488038091B306909135
:10186000B4060E943F0960E072E089EB96E00E94B6
:1018700088038091B1069091B2060E943F096FE003
:1018800072E089EB96E00E9488038091AF06909108
:10189000B0060E943F098091B2068F938091B106F5
:1018A0008F938091B6068F938091B5068F9389E1CF
:1018B00092E09F938F938BE496E09F938F930E9487
:1018C000F21710923706109236060FB6F894DEBF64
:1018D0000FBECDBF8091B5069091B60684369105B6
:1018E0000CF0E2C366E272E089EB96E00E947403BA
:1018F0006DE372E086E597E00E9474030E940B0896
:1019000068EE73E080E090E00E944E0460E472E0D4
:1019100086E597E00E9474030E940B0868EE73E06E
:1019200080E090E00E944E046AE572E086E597E070
:101930000E9474030E940B0860ED77E080E090E065
:101940000E944E0464E772E086E597E00E9474030B
:101950000E940B0860ED77E080E090E00E944E046A
:1019600062E872E086E597E00E9474030E940B082B
:1019700060ED77E080E090E00E944E046FE872E056
:1019800086E597E00E9474030E940B0868EE73E0FE
:1019900080E090E00E944E046BE972E086E597E0FB
:1019A0000E9474030E940B0868EE73E080E090E0F0
:1019B0000E944E046DEA72E086E597E00E9474038F
:1019C0000E940B0868EE73E080E090E00E944E04F5
:1019D0006FED72E086E597E00E9474030E940B08A9
:1019E00064EF71E080E090E00E944E0465E173E0F6
:1019F00086E597E00E9474030E940B0864E670E09D
:101A000080E090E00E944E046BE476E086E597E08B
:101A10000E9474030E940B0860E177E280E090E08E
:101A20000E944E046BE273E086E597E00E94740327
:101A30000E940B0868E873E180E090E00E944E0489
:101A40006BE373E086E597E00E9474030E940B0845
:101A500064E670E080E090E00E944E0467E473E08A
:101A600086E597E00E9474030E940B0861E08BE01A
:101A70000E94E203789468E273E280E090E00E94C2
:101A80004E046091360670913706072E000C880BC5
:101A9000990B0E94021320E030E040E150E40E94E4
:101AA000611320E030E040E752E40E94611320E03F
:101AB00030E04AE754E40E94E014609347067093D4
:101AC00048068093490690934A0663E573E089EBE4
:101AD00096E00E94880360914706709148068091C5
:101AE000490690914A060E94740820E030E0A9015E
:101AF00060914706709148068091490690914A0688
:101B00000E94FB12882309F4BFC28091AF06909116
:101B1000B0068130910521F0029709F45EC0ACC295
:101B200061E08DE00E94E2038092430690924406B9
:101B3000A0924506B092460668EB7BE080E090E01C
:101B40000E944E046FE573E089EB96E00E948803E3
:101B50006091430670914406809145069091460637
:101B60000E94740863E573E089EB96E00E948803A5
:101B700060914706709148068091490690914A0607
:101B80000E9474082091470630914806409149060A
:101B900050914A0660E070E080E89FE30E94E01404
:101BA00020914306309144064091450650914606E7
:101BB0000E94611320E030E64AE657E40E94611378
:101BC0002B013C010E947408C301B2010E94591507
:101BD0000E944E0460E08DE04CC261E084E00E940F
:101BE000E2038091AF069091B00618A21F8E1AA250
:101BF00019A21CA21BA24AE0B8010E944011F801E0
:101C000001900020E9F731977F01E01AF10AB7014E
:101C1000CE014F960E942603811105C0CE014F963A
:101C20000E944D0307C0FCA2EBA2B8018F8D98A1C2
:101C30000E94EB1765E773E089EB96E00E9474035E
:101C40006DE372E086E597E00E9474030E940B0842
:101C500068EE73E080E090E00E944E0460E472E081
:101C600086E597E00E9474030E940B0868EE73E01B
:101C700080E090E00E944E046AE572E086E597E01D
:101C80000E9474030E940B0860ED77E080E090E012
:101C90000E944E0464E772E086E597E00E947403B8
:101CA0000E940B0860ED77E080E090E00E944E0417
:101CB00062E872E086E597E00E9474030E940B08D8
:101CC00060ED77E080E090E00E944E046FE872E003
:101CD00086E597E00E9474030E940B0868EE73E0AB
:101CE00080E090E00E944E046BE972E086E597E0A8
:101CF0000E9474030E940B0868EE73E080E090E09D
:101D00000E944E041A8219821C821B821E821D822E
:101D10006BE370E0C8010E942603811104C0C80172
:101D20000E944D030AC08BE390E09E838D8360E99F
:101D300073E089819A810E94EB178BA19CA16F8C23
:101D400078A0ED80FE806114710409F4B6C100979B
:101D5000A1F0E80EF91EB701C8010E9426038823EE
:101D600009F4ABC129813A818D819E81B301820F33
:101D7000931F0E94EB17FE82ED824D815E81698187
:101D80007A8186E597E00E94B80062E671E086E518
:101D900097E00E945F0389819A810E9477160E94D2
:101DA0000B0860ED77E080E090E00E944E046CEC60
:101DB00073E086E597E00E9474030E940B0868E2D6
:101DC00073E280E090E00E944E046BE373E086E5EE
:101DD00097E00E94740310920501FF24F39484E0BD
:101DE000E82E92E0792E809105018111F6C064EF12
:101DF00071E080E090E00E944E0486E597E00E944A
:101E0000DF02892B81F386E597E00E94F702282FF5
:101E1000E091350681E08E0F80933506F0E0EB51BE
:101E2000FA4F2083803520F02DA30E941C082DA19D
:101E3000E09142068E2F90E087309105F0F6FC018C
:101E4000EC5CFF4F0C94C8152A3009F4C3C0809194
:101E50003506833069F46CED73E085EE95E02DA3D3
:101E60000E94E2172DA1892B19F4F0924206C5CFEA
:101E70002A3319F660EE73E085EE95E00E94E217D2
:101E8000892B49F46DEE73E089EB96E00E947403B0
:101E9000709242069FC061E074E085EE95E00E947A
:101EA000E217892B09F096C06CE074E089EB96E0AC
:101EB0000E947403D09242068DC02A3009F09DCF53
:101EC0006EE174E089EB96E00E94880365EE75E0B0
:101ED00089EB96E03DC02C3209F08FCF6EE274E0C2
:101EE00089EB96E00E94880365EE75E089EB96E049
:101EF0000E947403C09242066DC02C3209F07DCF5F
:101F000062E474E089EB96E00E94880365EE75E078
:101F100089EB96E00E947403E09242065BC02A308F
:101F200009F06BCF68E574E089EB96E00E948803C6
:101F300065EE75E089EB96E00E9474036EE674E04E
:101F400086E597E00E94880365EE75E086E597E0F8
:101F50000E9474033DC02A3009F04FCF85EE95E012
:101F60000E94221190934106809340066DE774E031
:101F700089EB96E00E94880380914006909141068B
:101F80000E943F0961E974E089EB96E00E948803B2
:101F9000309242061FC08091400690914106019701
:101FA0009093410680934006181619060CF425CF2D
:101FB00085EE95E00E941E116093430670934406DF
:101FC00080934506909346060E947408F09205019E
:101FD000109242060E941C0810CF60E177E280E078
:101FE00090E00E944E0467E473E086E597E00E946B
:101FF00074030E940B088F8D98A10E94771668EBDE
:102000007BE080E090E00E944E046FE573E089EB96
:1020100096E00E9488036091430670914406809187
:102020004506909146060E9474082091470630911B
:1020300048064091490650914A0660E070E080E809
:102040009FE30E94E01420914306309144064091A2
:102050004506509146060E94611320E030E64AE6AC
:1020600057E40E9461130E9459150E944E0460E0DB
:1020700084E00E94E20306C064EA74E089EB96E023
:102080000E947403F8940CC06DEB74E089EB96E049
:102090000E94740360E27EE480E090E00E944E04BF
:1020A00060E08BE00E94E20368EE73E080E090E085
:1020B0000E944E040E94B401F8CAC8010E944D0358
:1020C0005CCE1092BC061092BB0688EE93E0A0E0B6
:1020D000B0E08093BD069093BE06A093BF06B09378
:1020E000C00620E331E03093BA062093B90625EC10
:1020F00030E03093C6062093C50624EC30E03093E0
:10210000C8062093C70620EC30E03093CA0620931F
:10211000C90621EC30E03093CC062093CB0622ECAC
:1021200030E03093CE062093CD0626EC30E030939D
:10213000D0062093CF061092D2061092D3061092AA
:10214000D4061092D50610927807109277078093E4
:10215000790790937A07A0937B07B0937C0722E4DA
:1021600031E030937607209375071092590710924B
:10217000580780935A0790935B07A0935C07B0932E
:102180005D0784E591E0909357078093560710927E
:102190006D0710926C0710926F0710926E071092E5
:1021A0007107109270071092730710927207609176
:1021B00074076E7F6D7F609374076695617081E030
:1021C000682788E00E94E20361E088E00E94120430
:1021D000EBE0F1E0E491E0936607E7EFF0E0E491F3
:1021E000F0E0EE0FFF1FE552FF4F85919491909321
:1021F00068078093670760E087E00E94120480917F
:10220000740781FD04C061E087E00E94E20387E07B
:1022100080936207EAE0F1E0E491E0936307E6EF80
:10222000F0E0E491F0E0EE0FFF1FEB51FF4F8591DE
:1022300094919093650780936407089566277727A4
:102240000C946D11FC0188279927E8942191203284
:10225000E9F3293010F02E30C8F32B3241F02D3243
:1022600039F4689404C00E944B11820F911D219192
:1022700020532A30C0F31EF4909581959F4F089506
:10228000BB274A3031F4992322F4BDE29095819521
:102290009F4F0C9454117AE0979F902D879F802D2B
:1022A000910D11240895BB27FB015527AA27880FFC
:1022B000991FAA1FA41710F0A41B83955051B9F7BA
:1022C000A05DAA3308F0A95DA193009779F7B11139
:1022D000B1931192CB010C94EB12A0E0B0E0E3E7D4
:1022E000F1E10C943114EC017B016115710519F0D9
:1022F000DB018D939C938E010F5F1F4F7880872D9C
:1023000090E00E94CA12892B11F0E801F4CFBDE2DF
:102310007B1205C00F5F1F4F7980C1E008C0EBE260
:102320007E1204C08E010E5F1F4F7980C0E06801ED
:10233000F1E0CF1AD10843E050E06EE770E0C6014B
:102340000E94D312892BF1F4680122E0C20ED11C45
:1023500045E050E069E770E0C6010E94D312892B86
:1023600021F4680187E0C80ED11CE114F10419F0D2
:10237000D701CD92DC92C111FFC060E070E080E82F
:102380009FE703C143E050E066E770E0C6010E94AA
:10239000D312892B51F4E114F10409F4F2C00E5F59
:1023A0001F4FF70111830083ECC0680160E070E00B
:1023B000CB0100E010E0F601D0EDD70DDA3058F592
:1023C0002C2F2260622E2C2F2870C2FF05C02111F5
:1023D00028C00F5F1F4F25C0222311F001501109A3
:1023E000A5E0B0E09B01AC010E9422144B015C010E
:1023F000880C991CAA1CBB1CC501B4016D0F711D72
:10240000811D911D6839A9E97A078A07A9E19A0710
:1024100040F0C66005C0DE3F51F4C3FD44C0C86053
:102420006C2EBFEFCB1ADB0A7080C62DC4CF2D2FC8
:102430002F7D2531C1F540814D3211F4C06106C0B8
:102440004B3221F0319621E030E006C03296D601C1
:1024500011964C9122E030E0A0EDA40FAA3018F0C4
:10246000E21BF30B20C040E050E04038BCE05B07CB
:102470005CF49A01220F331F220F331F420F531FA8
:10248000440F551F4A0F511D3196DF0111972C91B2
:10249000A0EDA20FAA3048F3C4FF03C051954195A7
:1024A0005109040F151FC1FF07C0E114F10421F009
:1024B0003197D701ED93FC930E940013C370C33092
:1024C00019F06B017C0106C06B017C01F7FAF094F6
:1024D000F7F8F09420E030E0A901C701B6010E94AE
:1024E000FB12882309F445C017FF06C0119501951A
:1024F0001109C5E9D0E002C0CDEAD0E05E01B8E143
:10250000AB1AB1084601BE2DAF2D90E2E92EF12C99
:102510000E151F0584F0FE012591359145915491CA
:10252000B4018B2F9A2F0E9461134B01B82FA92F52
:102530000E191F09EDCF2497F594E794CA15DB0512
:1025400039F76401EB2EFA2E8E2D880F8F2D881F00
:102550008F3F49F020E030E0A901C701B6010E9499
:10256000FB12811106C082E290E090938207809373
:102570008107C701B60109C060E070E080E89FEF05
:1025800004C060E070E080EC9FE7CDB7DEB7EEE01E
:102590000C944D1491110C94CE13803219F0895083
:1025A0008550C8F70895FB01DC014150504088F088
:1025B0008D9181341CF08B350CF4805E6591613413
:1025C0001CF06B350CF4605E861B611171F3990B86
:1025D0000895881BFCCFDC01FC01672F71917723E4
:1025E000E1F7329704C07C916D9370836291AE17CE
:1025F000BF07C8F308950E943D1308F481E00895D1
:10260000E89409C097FB3EF490958095709561958C
:102610007F4F8F4F9F4F9923A9F0F92F96E9BB2742
:102620009395F695879577956795B795F111F8CFBE
:10263000FAF4BB0F11F460FF1BC06F5F7F4F8F4F29
:102640009F4F16C0882311F096E911C0772321F01F
:102650009EE8872F762F05C0662371F096E8862FB7
:1026600070E060E02AF09A95660F771F881FDAF70E
:10267000880F9695879597F90895990F0008550F3B
:10268000AA0BE0E8FEEF16161706E807F907C0F0F8
:1026900012161306E407F50798F0621B730B840B00
:1026A000950B39F40A2661F0232B242B252B21F4DA
:1026B00008950A2609F4A140A6958FEF811D811D7A
:1026C00008950E9474130C94E8130E94DA1338F0F2
:1026D0000E94E11320F0952311F00C94D1130C9477
:1026E000D71311240C941C140E94F91370F3959FB6
:1026F000C1F3950F50E0551F629FF001729FBB27F9
:10270000F00DB11D639FAA27F00DB11DAA1F649F94
:102710006627B00DA11D661F829F2227B00DA11D47
:10272000621F739FB00DA11D621F839FA00D611DCD
:10273000221F749F3327A00D611D231F849F600DEE
:10274000211D822F762F6A2F11249F5750409AF017
:10275000F1F088234AF0EE0FFF1FBB1F661F771FA3
:10276000881F91505040A9F79E3F510580F00C946E
:10277000D1130C941C145F3FE4F3983ED4F3869578
:1027800077956795B795F795E7959F5FC1F7FE2B0E
:10279000880F911D9695879597F908959927882711
:1027A000089597F99F6780E870E060E008959FEFD3
:1027B00080EC089500240A941616170618060906D8
:1027C000089500240A9412161306140605060895A7
:1027D000092E0394000C11F4882352F0BB0F40F42F
:1027E000BF2B11F460FF04C06F5F7F4F8F4F9F4F6F
:1027F000089557FD9058440F551F59F05F3F71F0F1
:102800004795880F97FB991F61F09F3F79F0879557
:102810000895121613061406551FF2CF4695F1DFE0
:1028200008C0161617061806991FF1CF8695710570
:10283000610508940895E894BB2766277727CB01A4
:1028400097F908950E946414A59F900DB49F900D70
:10285000A49F800D911D112408952F923F924F92B5
:102860005F926F927F928F929F92AF92BF92CF9220
:10287000DF92EF92FF920F931F93CF93DF93CDB729
:10288000DEB7CA1BDB0B0FB6F894DEBF0FBECDBFA1
:1028900009942A88398848885F846E847D848C8472
:1028A0009B84AA84B984C884DF80EE80FD800C817B
:1028B0001B81AA81B981CE0FD11D0FB6F894DEBF5E
:1028C0000FBECDBFED010895A29FB001B39FC0011F
:1028D000A39F700D811D1124911DB29F700D811D4C
:1028E0001124911D08955058BB27AA270E948B14CC
:1028F0000C94E8130E94DA1338F00E94E11320F0E0
:1029000039F49F3F19F426F40C94D7130EF4E09594
:10291000E7FB0C94D113E92F0E94F91358F3BA176F
:10292000620773078407950720F079F4A6F50C94E5
:102930001B140EF4E0950B2EBA2FA02D0B01B9013C
:1029400090010C01CA01A0011124FF27591B99F025
:10295000593F50F4503E68F11A16F040A22F232F31
:10296000342F4427585FF3CF469537952795A79581
:10297000F0405395C9F77EF41F16BA0B620B730B28
:10298000840BBAF09150A1F0FF0FBB1F661F771F99
:10299000881FC2F70EC0BA0F621F731F841F48F44E
:1029A000879577956795B795F7959E3F08F0B0CFD7
:1029B0009395880F08F09927EE0F979587950895BE
:1029C0000E94F4140C94E8130E94E11358F00E9442
:1029D000DA1340F029F45F3F29F00C94D113511120
:1029E0000C941C140C94D7130E94F91368F39923C8
:1029F000B1F3552391F3951B550BBB27AA276217FB
:102A00007307840738F09F5F5F4F220F331F441F07
:102A1000AA1FA9F335D00E2E3AF0E0E832D091503B
:102A20005040E695001CCAF72BD0FE2F29D0660F28
:102A3000771F881FBB1F261737074807AB07B0E86B
:102A400009F0BB0B802DBF01FF2793585F4F3AF071
:102A50009E3F510578F00C94D1130C941C145F3FE9
:102A6000E4F3983ED4F3869577956795B795F795F7
:102A70009F5FC9F7880F911D9695879597F90895DF
:102A8000E1E0660F771F881FBB1F6217730784077B
:102A9000BA0720F0621B730B840BBA0BEE1F88F78A
:102AA000E09508950E9459156894B1110C941C1476
:102AB00008950E94011488F09F5798F0B92F992724
:102AC000B751B0F0E1F0660F771F881F991F1AF019
:102AD000BA95C9F714C0B13091F00E941B14B1E04F
:102AE00008950C941B14672F782F8827B85F39F04E
:102AF000B93FCCF3869577956795B395D9F73EF4B2
:102B000090958095709561957F4F8F4F9F4F089559
:102B10000E943D1308F48FEF08950E943D13880B27
:102B2000990B089597FB072E16F4009407D077FDB4
:102B300009D00E94CE1507FC05D03EF490958195F2
:102B40009F4F0895709561957F4F0895A1E21A2EC9
:102B5000AA1BBB1BFD010DC0AA1FBB1FEE1FFF1F41
:102B6000A217B307E407F50720F0A21BB30BE40B91
:102B7000F50B661F771F881F991F1A9469F76095D8
:102B80007095809590959B01AC01BD01CF01089592
:102B9000EE0FFF1F0590F491E02D0994AA1BBB1BBB
:102BA00051E107C0AA1FBB1FA617B70710F0A61B4D
:102BB000B70B881F991F5A95A9F780959095BC016E
:102BC000CD010895CF93DF938230910510F482E018
:102BD00090E0E0918507F091860720E030E0C0E0CA
:102BE000D0E0309711F14081518148175907C0F06A
:102BF0004817590761F482819381209719F09B83CC
:102C00008A832BC0909386078093850726C0211561
:102C1000310519F04217530718F49A01BE01DF017C
:102C2000EF010280F381E02DDCCF2115310509F1A0
:102C3000281B390B2430310590F412968D919C910C
:102C400013976115710521F0FB019383828304C002
:102C50009093860780938507FD01329644C0FD015D
:102C6000E20FF31F81939193225031092D933C93EE
:102C70003AC02091830730918407232B41F420919F
:102C80000801309109013093840720938307209134
:102C90000601309107012115310541F42DB73EB7EA
:102CA00040910A0150910B01241B350BE0918307E1
:102CB000F0918407E217F307A0F42E1B3F0B2817AF
:102CC000390778F0AC014E5F5F4F2417350748F0A5
:102CD0004E0F5F1F50938407409383078193919316
:102CE00002C0E0E0F0E0CF01DF91CF9108950F93B3
:102CF0001F93CF93DF93009709F48CC0FC013297A8
:102D00001382128200918507109186070115110523
:102D100081F420813181820F931F209183073091AC
:102D200084072817390779F5F0938407E093830720
:102D300071C0D80140E050E0AE17BF0750F41296C2
:102D40002D913C911397AD012115310509F1D90160
:102D5000F3CF9D01DA013383228360817181860F75
:102D6000971F8217930769F4EC0128813981260F98
:102D7000371F2E5F3F4F318320838A819B8193834E
:102D80008283452B29F4F0938607E093850742C0A0
:102D90001396FC93EE931297ED01499159919E0180
:102DA000240F351FE217F30771F480819181840F9E
:102DB000951F029611969C938E9382819381139610
:102DC0009C938E931297E0E0F0E0D80112968D91DB
:102DD0009C911397009719F0F8018C01F6CF8D9113
:102DE0009C9198012E5F3F4F820F931F2091830784
:102DF000309184072817390769F4309729F4109225
:102E000086071092850702C01382128210938407EE
:102E100000938307DF91CF911F910F910895A0E058
:102E2000B0E0E5E1F7E10C943114EC01009721F4F6
:102E3000CB010E94E215B8C0FC01E60FF71F9C0110
:102E400022503109E217F30708F4ACC0D9010D9103
:102E50001C91119706171707B0F00530110508F4FB
:102E60009FC0C80104978617970708F499C00250BD
:102E70001109061B170B019311936D937C93CF01DE
:102E80000E9477168DC05B01A01AB10A4C01800E1A
:102E9000911EA0918507B091860740E050E0E12C9B
:102EA000F12C109709F44AC0A815B905D1F56D9019
:102EB0007C901197630182E0C80ED11CCA14DB0418
:102EC00080F1A3014A195B096A0182E0C80ED11C96
:102ED0001296BC9012971396AC91B5E0CB16D10424
:102EE00040F0B282A38351834083D9016D937C93D8
:102EF0000AC00E5F1F4FC301800F911FF90191831C
:102F00008083EB2DFA2FE114F10431F0D7011396F1
:102F1000FC93EE93129744C0F0938607E0938507E5
:102F20003FC08D919C9111974817590708F4AC0147
:102F30007D0112960D90BC91A02DB3CF8091830797
:102F40009091840788159905E1F446175707C8F44E
:102F50008091060190910701009741F48DB79EB7CB
:102F600040910A0150910B01841B950BE817F9075A
:102F7000C8F4F0938407E0938307F90171836083B9
:102F80000FC0CB010E94E2157C01009759F0A80107
:102F9000BE010E94D917CE010E947716C70104C056
:102FA000CE0102C080E090E0CDB7DEB7EEE00C9439
:102FB0004D14FB01DC0102C001900D9241505040C4
:102FC000D8F70895FB01DC018D9101908019011063
:102FD000D9F3990B0895FB01DC0101900D920020BB
:102FE000E1F70895AEE0B0E0E8EFF7E10C943B14B0
:102FF0000D891E8986E08C831A8309838FEF9FE7F2
:103000009E838D83AE01475E5F4F6F89788DCE01C1
:1030100001960E942E182F813885F801E20FF31FC8
:1030200010822E96E4E00C945714AEE0B0E0EBE191
:10303000F8E10C943D1485E08C838B899C899A83FC
:103040008983AE01495E5F4F6D897E89CE0101960D
:103050000E94801B2E96E2E00C945914ACE0B0E084
:10306000E4E3F8E10C942D147C016B018A01FC016E
:1030700017821682838181FFBDC1CE0101964C016A
:10308000F7019381F60193FD859193FF81916F0183
:10309000882309F4ABC1853239F493FD859193FF00
:1030A00081916F01853229F4B70190E00E940D1DD6
:1030B000E7CF512C312C20E02032A0F48B3269F084
:1030C00030F4803259F0833269F420612CC08D32A3
:1030D00039F0803339F4216026C02260246023C097
:1030E000286021C027FD27C030ED380F3A3078F432
:1030F00026FF06C0FAE05F9E300D1124532E13C048
:103100008AE0389E300D1124332E20620CC08E329E
:1031100021F426FD6BC1206406C08C3611F42068B2
:1031200002C0883641F4F60193FD859193FF8191A9
:103130006F018111C1CF982F9F7D9554933028F452
:103140000C5F1F4FFFE3F9830DC0833631F08337E7
:1031500071F0833509F05BC022C0F801808189835A
:103160000E5F1F4F44244394512C540115C0380165
:10317000F2E06F0E711CF801A080B18026FF03C041
:10318000652D70E002C06FEF7FEFC5012C870E94B4
:10319000C41C2C0183012C852F77222E17C03801E7
:1031A000F2E06F0E711CF801A080B18026FF03C011
:1031B000652D70E002C06FEF7FEFC5012C870E9484
:1031C000B91C2C012C852068222E830123FC1BC0F6
:1031D000832D90E048165906B0F4B70180E290E0E4
:1031E0000E940D1D3A94F4CFF50127FC859127FE2E
:1031F00081915F01B70190E00E940D1D31103A945A
:10320000F1E04F1A51084114510471F7E5C08436BA
:1032100011F0893639F5F80127FF07C06081718107
:10322000828193810C5F1F4F08C060817181072EDE
:10323000000C880B990B0E5F1F4F2F76722E97FF95
:1032400009C090958095709561957F4F8F4F9F4FE6
:103250002068722E2AE030E0A4010E945E1DA82E94
:10326000A81844C0853729F42F7EB22E2AE030E01A
:1032700025C0F22FF97FBF2E8F36C1F018F48835A4
:1032800079F0B4C0803719F0883721F0AFC02F2F04
:103290002061B22EB4FE0DC08B2D8460B82E09C003
:1032A00024FF0AC09F2F9660B92E06C028E030E0A8
:1032B00005C020E130E002C020E132E0F801B7FEB5
:1032C00007C060817181828193810C5F1F4F06C0AE
:1032D0006081718180E090E00E5F1F4FA4010E9429
:1032E0005E1DA82EA818FB2DFF777F2E76FE0BC043
:1032F000372D3E7FA51450F474FE0AC072FC08C03E
:10330000372D3E7E05C0BA2C372D03C0BA2C01C024
:10331000B52C34FF0DC0FE01EA0DF11D8081803314
:1033200011F4397E09C032FF06C0B394B39404C0CF
:10333000832F867809F0B39433FD13C030FF06C0A5
:103340005A2CB31418F4530C5B18B32CB31468F450
:10335000B70180E290E03C870E940D1DB3943C854C
:10336000F5CFB31410F43B1801C0312C34FF12C058
:10337000B70180E390E03C870E940D1D3C8532FF41
:1033800017C031FD03C088E790E002C088E590E0F7
:10339000B7010CC0832F867859F031FF02C08BE251
:1033A00001C080E237FD8DE2B70190E00E940D1D63
:1033B000A51438F4B70180E390E00E940D1D5A94E3
:1033C000F7CFAA94F401EA0DF11D8081B70190E0D6
:1033D0000E940D1DA110F5CF332009F451CEB70185
:1033E00080E290E00E940D1D3A94F6CFF7018681AD
:1033F000978102C08FEF9FEF2C96E2E10C94491465
:1034000020FD09C0FC0123FD05C022FF02C073831B
:10341000628351834083089544FD10C046FD10C06F
:10342000DB01FC01AA0FBB1FEE1FFF1F1094D1F799
:103430006A0F7B1F8E1F9F1F31E003C033E001C066
:1034400034E0660F771F881F991F3150D1F7620F44
:10345000711D811D911D08950F931F93CF93DF93CD
:103460008C01C8010E94CF1CEC0197FD08C00E948E
:10347000CA12892BB1F7B801CE010E94451DCE01B9
:10348000DF91CF911F910F910895A1E0B0E0EBE49F
:10349000FAE10C9433148C01C62E7A0129830E9420
:1034A000CF1CAC01552729814B32510521F04D32FB
:1034B000510569F42068CA94C11002C080E076C04A
:1034C000C80129830E94CF1C298197FDF7CF322F95
:1034D0003D7FD32E322F307349F5803339F5BB242D
:1034E000BA94BC0C09F44EC0C80129830E94CF1CB9
:1034F000298197FD47C0382F3F7D383569F48D2DE0
:103500008264D82ECA94CA94CC20E1F1C8010E94EA
:10351000CF1C97FF0BC036C026FF04C02D2D2260A4
:10352000D22E03C03D2D3261D32ECB2C812C912C79
:10353000540120ED280F283080F0D4FE04C0B801DB
:103540000E94451D1CC02A3040F0D6FEF8CF2F7DCA
:103550003FEE320F363098F727504D2DC501B4019C
:103560000E940C1A4B015C018D2D8260D82ECA94EA
:10357000CC2059F0C8010E94CF1C97FFDACFD1FCB4
:1035800004C09CCF812C912C5401D7FE08C0B0946C
:10359000A09490948094811C911CA11CB11C2D2D91
:1035A000B501A401C7010E94001A81E02196ECE058
:1035B0000C944F14A1E2B0E0E0EEFAE10C94311467
:1035C0005C017A01CE0101966C0180E2F601119254
:1035D0008A95E9F7F501838040E050E0912C712C49
:1035E00070E0A1E0B0E0F90183FC859183FE819158
:1035F0008F01982F9F01811103C080E090E07CC073
:103600008E3519F44115510549F1E72FF0E0E41723
:10361000F5073CF48D3559F18D3219F4772001F11D
:1036200003C0711001C0982E892F869586958695C6
:103630008601080F111D892F87703D0101C0660C9E
:103640008A95EAF7F801808186298083991559F0D7
:10365000991510F49F5FE8CF9150E6CF71E004C058
:103660007724739401C0712C4F5F5F4FBCCF7720DC
:1036700019F08E8180628E83711103C09924939416
:1036800016C0F6019E012F5D3F4F8081809581938A
:10369000E217F307D1F7F2CFE114F10429F0F701B3
:1036A0008083C70101967C016150912CF9F0C5011E
:1036B00069A30E94CF1C69A197FD16C0282F2695EB
:1036C00026952695F601E20FF11D208130E0AC0130
:1036D0004770552702C0359527954A95E2F720FD9A
:1036E000DBCFB5010E94451D911087CFE114F10495
:1036F00011F0F7011082C801A196EEE00C944D1470
:103700004F925F927F928F929F92AF92BF92CF9291
:10371000DF92EF92FF920F931F93CF93DF931F924D
:10372000CDB7DEB76C012B015A01FC01178216825E
:10373000712CF601F380F201F3FC8591F3FE819187
:10374000382F2F01882309F4F3C090E039830E94B9
:10375000CA123981892B21F0C6010E942C1AE9CFA7
:10376000353241F4F201F3FC3591F3FE31912F0132
:10377000353269F4C60139830E94CF1C398197FD27
:10378000D5C03817B1F2B6010E94451DD1C03A32FA
:1037900039F4F3FC3591F3FE31912F0151E001C072
:1037A00050E0420110E020ED230F2A3090F45260E7
:1037B000612F70E080E090E040E259830E940C1A93
:1037C000162FF401F3FC3591F3FE31914F0159812D
:1037D000EACF052F232F240151FF03C0111102C08E
:1037E000A7C01FEF383619F03C3659F011C0F4016C
:1037F000F3FC2591F3FE21912F01283649F4052F82
:1038000008600460F201F3FC2591F3FE21912F0181
:10381000222309F48DC0622F70E081EB90E02983B0
:103820000E94AE1C2981892B09F482C000FD07C0CB
:10383000F501E080F180C50102965C0102C0E12C37
:10384000F12C2E3651F4F6014681578160E070E08C
:10385000202FC7010E94001A6CCF233691F401FF7C
:1038600011E0C6010E94CF1C97FD60C0E114F10475
:1038700029F0F7018083C70101967C01115089F777
:1038800051C02B3559F49201A701612FC6010E9446
:10389000DA1A2C01892B09F045C03FC0C6012983E3
:1038A0000E942C1A298197FD41C02F3659F128F426
:1038B000243631F1293649F127C0233769F02537FD
:1038C000F9F022C0E114F10429F0F7018082C70168
:1038D00001967C01115071F0C6010E94CF1C4C0171
:1038E00097FD08C00E94CA12892B61F3B601C4017A
:1038F0000E94451DE114F104A9F0F701108212C0E5
:10390000006203C0006101C00064202FA701612F85
:10391000C6010E94451A811105C0F601838180739A
:1039200029F406C000FD05CF739403CF772019F06A
:10393000872D90E002C08FEF9FEF0F90DF91CF9126
:103940001F910F91FF90EF90DF90CF90BF90AF90BD
:103950009F908F907F905F904F900895FC0105900D
:10396000061621F00020D9F7C00108953197CF0144
:103970000895FC010590615070400110D8F78095C2
:1039800090958E0F9F1F0895FC016150704001902B
:103990000110D8F7809590958E0F9F1F0895CF93B3
:1039A000DF93EC012B8120FF33C026FF0AC02F7B61
:1039B0002B838E819F8101969F838E838A8190E0E5
:1039C00029C022FF0FC0E881F9818081082E000CF8
:1039D000990B009719F420622B831AC03196F98352
:1039E000E8830EC0EA85FB85099597FF09C02B8106
:1039F000019611F080E201C080E1822B8B8308C028
:103A00002E813F812F5F3F4F3F832E83992702C036
:103A10008FEF9FEFDF91CF9108950F931F93CF9377
:103A2000DF93FB01238121FD03C08FEF9FEF28C0AF
:103A300022FF16C0468157812481358142175307E2
:103A400044F4A081B1819D012F5F3F4F31832083DA
:103A50008C93268137812F5F3F4F3783268310C099
:103A6000EB01092F182F0084F185E02D0995892B92
:103A7000E1F68E819F8101969F838E83812F902F07
:103A8000DF91CF911F910F910895FB01238120FFBA
:103A900012C026FD10C08F3F3FEF930761F0828375
:103AA0002F7D20642383268137812150310937837C
:103AB0002683992708958FEF9FEF0895FA01AA278B
:103AC000283051F1203181F1E8946F936E7F6E5F61
:103AD0007F4F8F4F9F4FAF4FB1E03ED0B4E03CD00F
:103AE000670F781F891F9A1FA11D680F791F8A1FF2
:103AF000911DA11D6A0F711D811D911DA11D20D059
:103B000009F468943F912AE0269F11243019305D12
:103B10003193DEF6CF010895462F4770405D419303
:103B2000B3E00FD0C9F7F6CF462F4F70405D4A3350
:103B300018F0495D31FD4052419302D0A9F7EACF18
:103B4000B4E0A6959795879577956795BA95C9F747
:103B500000976105710508959B01AC010A2E06943A
:103B60005795479537952795BA95C9F7620F731FF3
:103B7000841F951FA01D089510E0CDE8D0E004C07B
:103B8000FE010E94C8152196CE38D107C9F7F894D6
:023B9000FFCF65
:103B92000C020C020B010000870780000D0E1315AA
:103BA20016191A1C232526292A2C3234000001005A
:103BB2000800400000010004050D0A0C000000008E
:103BC2004B01B800E30092011401F200060100006B
:103BD200000061024D0219033F0246024302400205
:103BE200000000008B02B80019038A02DF02F7020C
:103BF20072020D0A0053797374656D2073746172D9
:103C0200746564207375636365737366756C6C7930
:103C12002028416374756174696E6720556E6974FA
:103C220029004D6573736167652072656365697606
:103C32006564004E6F206D65737361676520726500
:103C42006369657665640025642C25642C25642CE3
:103C52002564004D6F6973747572652052656164E5
:103C6200696E67732072656365697665643A2000E0
:103C720054656D7065726174757265205265616418
:103C8200696E67732072656365697665643A2000C0
:103C92004661726D20756E69742069643A2000462F
:103CA20061726D2069643A2000706172616D733DCA
:103CB20025642C25640073656E64696E67206461F7
:103CC200746120746F2073657276657200415400CE
:103CD20041542B53415042523D332C312C436F6E91
:103CE200747970652C475052530041542B53415004
:103CF20042523D332C312C41504E2C696E74657208
:103D02006E65740041542B5341504252203D312C78
:103D1200310041542B53415042523D322C3100412B
:103D2200542B48545450494E49540041542B485442
:103D32005450504152413D4349442C310041542B8F
:103D420048545450504152413D55524C2C68747461
:103D5200703A2F2F6972722E776F726B6E73747551
:103D620064792E636F2F746573742E7068700041CE
:103D7200542B48545450504152413D434F4E5445A8
:103D82004E542C6170706C69636174696F6E2F7828
:103D92002D7777772D666F726D2D75726C656E63F8
:103DA2006F6465640041542B48545450444154415B
:103DB2003D3139322C31303030300041542B4854AF
:103DC2005450414354494F4E3D310041542B4854C5
:103DD2005450524541440041542B48545450544588
:103DE200524D00466C6F7720726174653A20005420
:103DF200686520616D6F756E74206F6620776174DF
:103E020065723A2000526563656976696E6720645F
:103E12006174612066726F6D2073657276657200DF
:103E220041542B48545450504152413D55524C2C10
:103E3200687474703A2F2F6972722E776F726B6E7C
:103E420073747564792E636F2F74657374322E7078
:103E520068703F6661726D5F69643D0041542B4832
:103E6200545450414354494F4E3D300041542B006D
:103E72002B48545450414354494F4E3A00526563C3
:103E820065697665642048545450414354494F4E05
:103E9200002B48545450524541443A0052656365E0
:103EA200697665642048545450524541440049673C
:103EB2006E6F72696E67206563686F3A20004854BE
:103EC2005450414354494F4E2074797065206973B0
:103ED200200048545450414354494F4E2072657358
:103EE200756C7420697320004854545041435449FE
:103EF2004F4E206C656E67746820697320004154D0
:103F02002B48545450524541443D302C004854549F
:103F12005052454144206C656E6774682069732075
:103F220000485454505245414420636F6E74656E8C
:103F3200743A20004E6F206661726D207769746852
:103F420020696420697320666F756E64004E6F206D
:103F5200776174657220697320666C6F77696E672A
:103F620020696E20746865206D61696E20776174C6
:103F72006572206368616E6E656C006E616E0069C9
:083F82006E66006F7666000018
:107E0000112484B714BE81FFF0D085E080938100F7
:107E100082E08093C00088E18093C10086E0809377
:107E2000C20080E18093C4008EE0C9D0259A86E02C
:107E300020E33CEF91E0309385002093840096BBD3
:107E4000B09BFECF1D9AA8958150A9F7CC24DD24C4
:107E500088248394B5E0AB2EA1E19A2EF3E0BF2EE7
:107E6000A2D0813461F49FD0082FAFD0023811F036
:107E7000013811F484E001C083E08DD089C08234E0
:107E800011F484E103C0853419F485E0A6D080C0E4
:107E9000853579F488D0E82EFF2485D0082F10E0AE
:107EA000102F00270E291F29000F111F8ED06801E7
:107EB0006FC0863521F484E090D080E0DECF843638
:107EC00009F040C070D06FD0082F6DD080E0C81688
:107ED00080E7D80618F4F601B7BEE895C0E0D1E017
:107EE00062D089930C17E1F7F0E0CF16F0E7DF06D8
:107EF00018F0F601B7BEE89568D007B600FCFDCFD4
:107F0000A601A0E0B1E02C9130E011968C91119780
:107F100090E0982F8827822B932B1296FA010C0160
:107F200087BEE89511244E5F5F4FF1E0A038BF0790
:107F300051F7F601A7BEE89507B600FCFDCF97BE46
:107F4000E89526C08437B1F42ED02DD0F82E2BD052
:107F50003CD0F601EF2C8F010F5F1F4F84911BD097
:107F6000EA94F801C1F70894C11CD11CFA94CF0C13
:107F7000D11C0EC0853739F428D08EE10CD085E9AC
:107F80000AD08FE07ACF813511F488E018D01DD067
:107F900080E101D065CF982F8091C00085FFFCCF94
:107FA0009093C60008958091C00087FFFCCF809118
:107FB000C00084FD01C0A8958091C6000895E0E648
:107FC000F0E098E1908380830895EDDF803219F02E
:107FD00088E0F5DFFFCF84E1DECF1F93182FE3DFCA
:107FE0001150E9F7F2DF1F91089580E0E8DFEE27F6
:047FF000FF270994CA
:027FFE00040479
:0400000300007E007B
:00000001FF
